:020000040000FA
:0600000081EF13F0120075
:0600180062EF0AF0120085
:06002A000400592700004C
:10003000F801000004000000ED220000FE010000B5
:100040000100000050270000CB0000000900000064
:0C0050003C270000AD0000001400000080
:04005C000101FC6B37
:10006000FD6B000EE66E210EE66E000EE66EE6EC0F
:1000700006F0E552E552E552110EE66E210EE66EEF
:10008000000EE66E09EC07F0E552E552E55212006B
:10009000D9CFE6FFDACFE6FFE1CFD9FFE2CFDAFF33
:1000A000E652E652E6520101FC510C0A01E1EAD3A4
:1000B000070A01E1C4D3010A01E1FAD2030A01E10E
:1000C00068D2010A01E144D10F0A01E12BD1010AF2
:1000D00001E116D1030A01E1EFD0010A01E1C8D024
:1000E000070A01E19ED0010A01E174D0030A4BE046
:1000F000010A02E0A7EF04F0FD0EDB50230A2FE017
:10010000090A19E06E0A01E11ED1070A01E11BD1BB
:10011000010A04E0030A02E0A7EF04F00001CC6B3F
:1001200069EC06F00001D06F54EC06F00001CD6FD1
:10013000ADEC06F008D1010EFC6F220EE66E210E2A
:10014000E66E000EE66EE6EC06F0E552E552E5528C
:10015000330EE66E210EE66E000EA1EF04F0070EE0
:10016000FC6FEE0EE66E210EE66E000EE66EE6EC1D
:1001700006F0E552E552E552FF0EE66E210EE66E00
:10018000000EA1EF04F0FD0EDB50230A10E0090A77
:1001900001E1C6D36B0A01E1D6D0030A01E1D3D055
:1001A000010A01E1D0D0070A01E0D1D3CCD0020E80
:1001B000FC6F440EE66E210EE66E000EE66EE6EC77
:1001C00006F0E552E552E552550EE66E210EE66E5A
:1001D000000EB7D3FD0EDB50230A10E0090A01E13F
:1001E0009FD36B0A01E1AFD0030A01E1ACD0010A51
:1001F00001E1A9D0070A01E0AAD3A5D0030EFC6F44
:10020000660EE66E210EE66E000EE66EE6EC06F079
:10021000E552E552E552770EE66E210EE66E000ECF
:1002200090D3FD0EDB50230A10E0090A01E178D3D8
:100230006B0A01E188D0030A01E185D0010A01E1DE
:1002400082D0070A01E083D37ED0040EFC6F880EB3
:10025000E66E210EE66E000EE66EE6EC06F0E55266
:10026000E552E552990EE66E210EE66E000E69D358
:10027000FD0EDB50230A0DE0090A01E151D36B0AA0
:1002800062E0030A60E0010A5EE0070A01E05FD372
:100290005AD0050EFC6FAA0EE66E210EE66E000E19
:1002A000E66EE6EC06F0E552E552E552BB0EE66E70
:1002B000210EE66E000E45D3FD0EDB50230A0DE045
:1002C000090A01E12DD36B0A3EE0030A3CE0010A72
:1002D0003AE0070A01E03BD336D0060EFC6FCC0EA5
:1002E000E66E210EE66E000EE66EE6EC06F0E552D6
:1002F000E552E552DD0EE66E210EE66E000E21D3CC
:10030000FD0EDB502A0A01E10BD3090A01E108D3F3
:10031000620A19E0030A17E0010A15E0070A01E082
:1003200016D311D0FD0EDB502A0A01E1F9D2090AD9
:1003300001E1F6D2620A07E0030A05E0010A03E0E0
:10034000070A01E004D3FD0EDBCFE6FF09DBFED296
:10035000FD0EDB50230A59E0090A4FE06E0A3FE028
:10036000070A01E1F4D2010A1DE0030A01E0E4D02A
:10037000B4EC0AF00001CB5D01E3E9D2CB2BD35101
:10038000E66EE66AD251E66EE66AD151E66EE66A3C
:10039000CB51E66EE66A2CEC07F0146E080EE15CB9
:1003A0001BE218D00001CB51000801E3D0D2CB07EB
:1003B000D351E66EE66AD251E66EE66AD151E66E38
:1003C000E66ACB51E66EE66A2CEC07F0146E080E76
:1003D000E15C02E2E16AE552E16E145007D0B4EC50
:1003E0000AF00001D880CB5501E2B1D2CBC0CCF0ED
:1003F00069EC06F00001D06F84D2100E0001CB5DD5
:1004000001E33ED2CBC0CCF03BD2FD51010A4CE01F
:10041000010A01E09CD2B4EC0AF00001D880CB556F
:1004200001E295D2030ED16F020ED26F0C0ED36F84
:10043000CBC0CCF069EC06F00001D06F54EC06F0B4
:100440000001CD6FADEC06F0CDC0CBF00101090E7F
:10045000FC6F320EE66E220EE66E000EE66EE6ECE5
:1004600006F0E552E552E552430EE66E220EE66EC8
:10047000000EE66E09EC07F0E552E552E552000188
:10048000D351E66EE66AD251E66EE66AD151E66E67
:10049000E66ACB51E66EE66A2CEC07F0146E080EA5
:1004A000E15C01E3C9D1C6D1B4EC0AF00001D88007
:1004B000CB5501E24CD2020ED16FD26F0D0ED36F2D
:1004C000CBC0CCF069EC06F00001D06F54EC06F024
:1004D0000001CD6FADEC06F0D0C0CBF001010C0EE9
:1004E000FC6FBA0EE66E220EE66E000EE66EE6ECCD
:1004F00006F0E552E552E552CB0EE66E220EE66EB0
:10050000000EE66E09EC07F0E552E552E5520001F7
:10051000D351E66EE66AD251E66EE66AD151E66ED6
:10052000E66ACB51E66EE66A2CEC07F0146E080E14
:10053000E15C01E381D17ED10A0E0001CB03F3CF50
:1005400014F0640E156E0E6EF3CF09F08FEC13F0FD
:1005500005C0CBF0FD0EDB50D00F0001CB27CB51F7
:10056000100803E20A0ECB5FFAD7D351E66EE66AB3
:10057000D251E66EE66AD151E66EE66ACB51E66E7E
:10058000E66A2CEC07F0146E080EE15C01E354D12E
:1005900051D1FD0EDB50230A4DE0090A01E1C0D123
:1005A0006E0A3DE0070A01E1D2D1010A1BE0030A0D
:1005B00052E17F0E0001CB5D01E3C9D1CB2BD351BA
:1005C000E66EE66AD251E66EE66AD151E66EE66AFA
:1005D000CB51E66EE66A2CEC07F0146E080EE15C77
:1005E0001BE218D00001CB51000801E3B0D1CB07CA
:1005F000D351E66EE66AD251E66EE66AD151E66EF6
:10060000E66ACB51E66EE66A2CEC07F0146E080E33
:10061000E15C02E2E16AE552E16E145005D0800E21
:100620000001CB5D01E393D1CBC0CDF052DB0001E3
:10063000D06F6AD1800E0001CB5D01E388D1CBC0C1
:10064000CDF039DBCDC0E6FFCCC0E6FFB7EC0AF059
:10065000E552E55215D10A0E0001CB03F3CF14F099
:10066000640E156E0E6EF3CF09F08FEC13F005C01B
:10067000CBF0FD0EDB50D00F0001CB27CB517F0814
:1006800003E2640ECB5FFAD7D351E66EE66AD2512D
:10069000E66EE66AD151E66EE66ACB51E66EE66A30
:1006A0002CEC07F0146E080EE15C01E3C5D0C2D05B
:1006B000FD0EDB50230A5FE0090A01E131D16E0A29
:1006C00049E0070A3BE0010A1CE0030A01E087D089
:1006D000040E0001CB5D01E33AD1CB2BD351E66E82
:1006E000E66AD251E66EE66AD151E66EE66ACB5111
:1006F000E66EE66A2CEC07F0146E080EE15C1BE275
:1007000018D00001CB51010801E321D1CB07D3510F
:10071000E66EE66AD251E66EE66AD151E66EE66AA8
:10072000CB51E66EE66A2CEC07F0146E080EE15C25
:1007300002E2E16AE552E16E14500CD0010ECCC029
:10074000DBFF020ED0C0DBFFCBC0CEF0CBC0E6FF9C
:100750000FDA8FD0010ECCC0DBFF020ED0C0DBFF62
:10076000CBC0E6FF63DAE552010EDBCFCCF0020E20
:10077000DBCFD0F0ECD00001020ED16F010ED26FB2
:100780000E0ED36F01010B0EFC6F760EE66E220E7D
:10079000E66E000EE66EE6EC06F0E552E552E55236
:1007A000870EE66E220EE66E000EE66E09EC07F08E
:1007B000E552E552E5520001D351E66EE66AD251A8
:1007C000E66EE66AD151E66EE66ACB51E66EE66AFF
:1007D0002CEC07F0146E080EE15C2EE22BD00A0E12
:1007E0000001CB03F3CF14F0640E156E0E6EF3CF41
:1007F00009F08FEC13F005C0CBF0FD0EDB50D00FED
:100800000001CB27CB51100803E20A0ECB5FFAD7C9
:10081000D351E66EE66AD251E66EE66AD151E66ED3
:10082000E66ACB51E66EE66A2CEC07F0146E080E11
:10083000E15C02E2E16AE552E16E145088D0FD0EFF
:10084000DB50230A0DE0090A6BE06E0A01E17FD05C
:10085000070A01E17CD0010A01E179D0030A77D0CF
:10086000010ECCC0DBFF020ED0C0DBFFCBC0E6FF29
:1008700046D9E552010EDBCFCCF0020EDBCFD0F033
:1008800001014ED0FD0EDB502A0A49E0090A3EE084
:10089000670A3AE0070A5BE0010A18E0030A57E139
:1008A00000010E0ECB6FD351E66EE66AD251E66EB2
:1008B000E66AD151E66EE66ACB51E66EE66A2CEC4A
:1008C00007F0146E080EE15C18E215D00001090E65
:1008D000CB6FD351E66EE66AD251E66EE66AD1512D
:1008E000E66EE66ACB51E66EE66A2CEC07F0146E13
:1008F000080EE15C02E2E16AE552E16E1450CBC001
:10090000D0F0D2D90001CD6F28DA21D0FFD9D0C0E4
:10091000E6FFCCC0E6FFCFEC0AF0E552E55201015C
:10092000FC6B000EE66E210EE66E000EE66EE6EC47
:1009300006F0E552E552E552110EE66E210EE66E26
:10094000000EE66E09EC07F0E552E552E552E5527D
:10095000E552E552E552E5CFDAFFE7CFD9FF1200C5
:10096000D9CFE6FFDACFE6FFE1CFD9FFE2CFDAFF5A
:10097000FD0EDB50440A01E1B7D0070A01E176D051
:10098000010A39E0030A01E0B4D0CCC0CBF0000189
:10099000020ED16FD26F0E0ED36F0101080EFC6FE5
:1009A000FD6B100EE66E220EE66E000EE66EE6ECB5
:1009B00006F0E552E552E552210EE66E220EE66E95
:1009C000000EE66E09EC07F0E552E552E552000133
:1009D000D351E66EE66AD251E66EE66AD151E66E12
:1009E000E66ACB51E66EE66A2CEC07F0146E080E50
:1009F000E15C39E236D0CCC0CBF00001020ED16F01
:100A0000D26F0D0ED36F0101080EFC6F010EFD6F4A
:100A1000100EE66E220EE66E000EE66EE6EC06F0B6
:100A2000E552E552E552210EE66E220EE66E000E0C
:100A3000E66E09EC07F0E552E552E5520001D351AC
:100A4000E66EE66AD251E66EE66AD151E66EE66A75
:100A5000CB51E66EE66A2CEC07F0146E080EE15CF2
:100A600002E2E16AE552E16E145043D0CEC0CBF011
:100A70000001020ED16F010ED26F060ED36F01017D
:100A80000A0EFC6F540EE66E220EE66E000EE66E47
:100A9000E6EC06F0E552E552E552650EE66E220EF2
:100AA000E66E000EE66E09EC07F0E552E552E552FF
:100AB0000001D351E66EE66AD251E66EE66AD15184
:100AC000E66EE66ACB51E66EE66A2CEC07F0146E31
:100AD000080EE15C02E2E16AE552E16E1450CBC01F
:100AE000E6FFA4D8E55205D0800E0001CD5D01E2FD
:100AF00034D9E552E5CFDAFFE7CFD9FF1200D9CFDD
:100B0000E6FFDACFE6FFE1CFD9FFE2CFDAFFE65228
:100B1000E652E652DF6A330EDF5C21E2020EDFCFDF
:100B2000DBFFDBCFE6FF46EC13F0E552E76E010E8C
:100B3000E7CFDBFFFD0EDB50330DF350DF24E76E14
:100B4000020EE7CFDBFF010EDBCFE6FF020EDBCFAD
:100B5000E6FF23EC13F0E552E552DF2ADCD7E5523D
:100B6000E552E552E552E5CFDAFFE7CFD9FF1200B3
:100B7000D9CFE6FFDACFE6FFE1CFD9FFE2CFDAFF48
:100B8000E652E652E652A90EE66E220EE66E000E20
:100B9000E66EE6EC06F0E552E552E552DF6A330E0A
:100BA000DF5C3BE2FD0EDB50330DF350DF24E76EDC
:100BB000020EE7CFDBFFDBCFE6FF46EC13F0E5529A
:100BC000E76E010EE7CFDBFF020EDFCFDBFF010E8A
:100BD000DBCFE6FF020EDBCFE6FF23EC13F0E5529E
:100BE000E552160EDF5C17E2010EDBAE02D00E0EF0
:100BF00001D0090EE66EDFCFE6FFCFEC0AF0E5523A
:100C0000E552010EDB507F0BE66EDFCFE6FFB7EC5F
:100C10000AF0E552E552DF2AC2D7E552E552E55225
:100C2000E552E5CFDAFFE7CFD9FF1200D9CFE6FFD3
:100C3000DACFE6FFE1CFD9FFE2CFDAFFE652980E36
:100C4000E66E220EE66E000EE66E09EC07F0E55247
:100C5000E552E5520001CD6BDF6AB4EC0AF0D880B2
:100C6000DF5410E3FD0EDB50330DF350DF240001A1
:100C7000CC6F2FD80001D06F17D80001CD6F6DD881
:100C8000DF2AEBD7650EE66E220EE66E000EE66EEC
:100C900009EC07F0E552E552E552E552E552E5CFA1
:100CA000DAFFE7CFD9FF1200CCC0E6FF46EC13F025
:100CB000E5527F0B12000E0E0001D05D01E1CD8FD9
:100CC000CDC0E6FFCCC0E6FF23EC13F0E552E552C1
:100CD0001200D9CFE6FFDACFE6FFE1CFD9FFE2CFAE
:100CE000DAFFE652CCC0E6FF46EC13F0E552800B8B
:100CF000DF6E800EDF5C02E10E0E01D0090EE552C0
:100D0000E552E5CFDAFFE7CFD9FF1200D9CFE6FFF2
:100D1000DACFE6FFE1CFD9FFE2CFDAFFE652CCC06F
:100D2000E6FF46EC13F0E5527F0BDF6E0E0E00017E
:100D3000D05D02E1DF8E02D0000EDF9EDFCFE6FF46
:100D4000CCC0E6FF23EC13F0E552E552E552E55244
:100D5000E5CFDAFFE7CFD9FF1200400EE66ECDC037
:100D6000E6FFD0C0E6FFD8EC11F0E552E552E552BF
:100D700010D8E6688BEC09F0E552E66ACDC0E6FFD4
:100D8000D0C0E6FFF9EC11F0E552E552E552C9EFAB
:100D900006F0D9CFE6FFDACFE6FFE1CFD9FFE2CF09
:100DA000DAFFE652DF6A030EDF5C09E235EC12F08F
:100DB000190EE66E8BEC09F0E552DF2AF4D7E55206
:0C0DC000E552E5CFDAFFE7CFD9FF1200C3
:040DCC00D9CFE6FF96
:100DD000DACFE6FFE1CFD9FFE2CFDAFF010EE66E10
:100DE0009ADAE552800EE66E13DBE552FB0EDBCF9E
:100DF000E6FFFC0EDBCFE6FFFD0EDBCFE6FF46DABB
:100E0000E552E552E552E552E5CFDAFFE7CFD9FFEB
:100E10001200D9CFE6FFDACFE6FFE1CFD9FFE2CF6C
:100E2000DAFF010EE66E77DAE552C00EE66EF0DA12
:100E3000E552FB0EDBCFE6FFFC0EDBCFE6FFFD0E3F
:100E4000DBCFE6FF23DAE552E552E552E552E5CF86
:100E5000DAFFE7CFD9FF1200D9CFE6FFDACFE6FFFE
:100E6000E1CFD9FFE2CFDAFF010EE66E54DAE552A8
:100E7000FC0EDBCFE6FFFD0EDBCFE6FFFA0EDBCF8D
:100E8000E6FFFB0EDBCFE6FF8D0EE66E000EE66E94
:100E900075D8146E060EE15C02E2E16AE552E16E7D
:100EA0001450D950F80FE96EFF0EDA20EA6E020EE8
:100EB000EE180CE1ED500AE1D950F60FE96EFF0E85
:100EC000DA20EA6E400EEE26000EED22F60EDBCFA3
:100ED00014F0F70EDBCF15F0800E1424E66E98DACE
:100EE000E5528D0EE66E000EE66E97D9E552E5529C
:100EF000E552E5CFDAFFE7CFD9FF1200010EE66E2B
:100F000087DAE552020EE66E83DAE5521200D9CF97
:100F1000E6FFDACFE6FFE1CFD9FFE2CFDAFFE65214
:100F2000E652010EDE6EDD6AFC0EDB06DBCF14F04E
:100F3000FD0E01E2DB06DBCF15F0145015100EE0BC
:100F4000D9CFE9FFDACFEAFF0A0EEC02F3CFEDFFCB
:100F5000EF02F3CFEEFFF450ED26E6D7DECF14F02C
:100F6000DDCF15F014C0F3FF15C0F4FFE552E552D4
:100F7000E552E5CFDAFFE7CFD9FF1200D9CFE6FF80
:100F8000DACFE6FFE1CFD9FFE2CFDAFF080EE124A6
:100F900002E3E168E652E16EF80EDBCFDEFFDBCF65
:100FA000DDFFFA0EDBCF08F0FB0EDBCF09F0040EFD
:100FB00008C0DBFF050E09C0DBFF060EDB6A070E6B
:100FC000DB6A040EDBCF14F0050EDBCF15F0000159
:100FD000800E15144BE008680968040EDBCF0DF095
:100FE000050EDBCF0EF06DEC12F0040E06C0DBFF39
:100FF000050E07C0DBFFDECF14F0DDCF15F00001DA
:10100000800E151420E0060EDBCF14F0DB2A070E4D
:10101000DBCF15F001E3DB2AFC0EDB501424E96E74
:10102000FD0EDB501520EA6E2D0EEF6E0868096884
:10103000DECF0DF0DDCF0EF06DEC12F006C0DEFF5E
:1010400007C0DDFF13D0060EDBCF14F0DB2A070E3E
:10105000DBCF15F001E3DB2AFC0EDB501424E96E34
:10106000FD0EDB501520EA6E200EEF6ED950040FF6
:10107000E96E000EDA20EA6EEE50ED1070E0040E1C
:10108000DBCFE6FF050EDBCFE6FF41DFE552E552A1
:10109000F3CF14F0F4CF15F0F3CF0DF0F4CF0EF042
:1010A000DECF08F0DDCF09F047EC12F0020E08C0E9
:1010B000DBFF030E09C0DBFF020EDBCF16F0030ED1
:1010C000DBCF17F0300E1626000E1722060EDBCFF0
:1010D00014F0DB2A070EDBCF15F001E3DB2AFC0E50
:1010E000DB501424E96EFD0EDB501520EA6E16C0AD
:1010F000EFFFDECF16F0DDCF17F016C0E6FF17C00A
:10110000E6FF040EDBCFE6FF050EDBCFE6FFFFDEDA
:10111000E552E552E552E7CF17F0E552E7CF16F07A
:10112000F3CF18F0F4CF19F0020EDBCF08F0030E66
:10113000DBCF09F0F3CF0DF0F4CF0EF06DEC12F031
:101140000650165C146E07501758156E14C0DEFF5B
:10115000DD6E040EDB06050E89E2DB0687D7060E80
:10116000DBCF14F0070EDBCF15F0FC0EDB501424A0
:10117000E96EFD0EDB501520EA6EEF6A080EE15CA9
:1011800002E2E16AE552E16EE552E5CFDAFFE7CF30
:10119000D9FF1200D9CFE6FFDACFE6FFE1CFD9FFC2
:1011A000E2CFDAFFE652E652DE6ADD6ADECF14F005
:1011B000DDCF15F0D890155004E6100E145C000E2B
:1011C000155823E2FA0EDBCF18F0FB0EDBCF19F037
:1011D000DE501824E96EDD501920EA6EEF50E66EFD
:1011E000FC0EDBCF16F0FD0EDBCF17F0DE50162421
:1011F000E96EDD501720EA6EE552E750EF6E05E02C
:10120000DF2A010ED3E3DB2AD1D7E552E552E552BE
:10121000E5CFDAFFE7CFD9FF1200D9CFE6FFDACF6B
:10122000E6FFE1CFD9FFE2CFDAFFE652E652100E39
:10123000DE6EDD6A010EE66E6ED8E552DFCF14F089
:10124000DF06010EDBCF15F001E2DB0614501510AE
:1012500015E0FC0EDBCFE9FFFD0EDBCFEAFFEF5020
:101260000DE0FC0EDBCFE9FFDB2AFD0EDBCFEAFF52
:1012700001E3DB2AEF50E66EE8D8DFD7E552E5520E
:10128000E552E5CFDAFFE7CFD9FF1200D9CFE6FF6D
:10129000DACFE6FFE1CFD9FFE2CFDAFFE652E6523E
:1012A000100EDE6EDD6A010EE66E35D8E552DFCF38
:1012B00014F0DF06010EDBCF15F001E2DB0614505F
:1012C000151021E0FB0EDBCFF6FFFC0EDBCFF7FFA6
:1012D000FD0EDBCFF8FF0800F55015E0D950FB0FED
:1012E000E96EFF0EDA20EA6EEFCFF6FFEE2AEFCFBF
:1012F000F7FF000EEE22EFCFF8FFEE220800F550C8
:10130000E66EA3D8D3D7E552E552E552E5CFDAFF32
:10131000E7CFD9FF1200D9CFE6FFDACFE6FFE1CF62
:10132000D9FFE2CFDAFFE652E652DF6AFD0EDB506C
:10133000DF5C14E2010EDB6AFE0EF36E010EDBCF02
:10134000F4FFF350F45C08E2010EDB50E76E010E8F
:10135000E7CFDBFFDB2AF0D7DF2AE8D7E552E552FB
:10136000E552E5CFDAFFE7CFD9FF1200D9CFE6FF8C
:10137000DACFE6FFE1CFD9FFE2CFDAFFE652DF6A4C
:10138000DF50146E156A0A0E145C000E155803E245
:1013900009D8DF2AF5D7E552E552E5CFDAFFE7CFE6
:1013A000D9FF1200D9CFE6FFDACFE6FFE1CFD9FFB0
:1013B000E2CFDAFFE652DF6A800EDF5C02E2DF2A6C
:1013C000FBD7E552E552E5CFDAFFE7CFD9FF1200B0
:1013D000D9CFE6FFDACFE6FFE1CFD9FFE2CFDAFFE0
:1013E000E6529468F80E96168D948D908D82DADF11
:1013F0008D84D8DF8B50DF6ED5DF8D94D3DF800EE8
:10140000DF14E552E552E5CFDAFFE7CFD9FF12004E
:10141000D9CFE6FFDACFE6FFE1CFD9FFE2CFDAFF9F
:10142000946AF80E96168D948D928D90BBDF8D8404
:10143000B9DFFD0EDB50826EB5DF8D94B3DFE55270
:10144000E5CFDAFFE7CFD9FF1200D9CFE6FFDACF39
:10145000E6FFE1CFD9FFE2CFDAFF946AF80E9616E5
:101460008D948D808D929EDF8D849CDFFD0EDB50F0
:10147000826E98DF8D9496DFE552E5CFDAFFE7CFF5
:10148000D9FF12000001080E8C6F656ABD6AF80E64
:101490008D16380EE66EBCDFE5520C0EE66EB8DF38
:1014A000E552060EE66EB4DFE552100EE66EB0DFD2
:1014B000E552010EE66EACDFE552020EE66EA8DFE5
:0414C000E5521200DF
:0C14C400D8CFE4FFE0CFE4FFE46EE9CFF6
:1014D000E4FFEACFE4FFF6CFE4FFF7CFE4FFF5CF78
:1014E000E4FFF3CFE4FFF4CFE4FFFACFE4FF00EE34
:1014F00000F0140EE80403E3EECFE4FFFBD700EEA8
:1015000014F0060EE80403E3EECFE4FFFBD7E65247
:10151000E5EC0DF0D20ED66EF294E55200EE19F025
:10152000060EE80403E3E5CFEDFFFBD700EE13F072
:10153000140EE80403E3E5CFEDFFFBD7E5CFFAFF98
:10154000E5CFF4FFE5CFF3FFE5CFF5FFE5CFF7FFFC
:10155000E5CFF6FFE5CFEAFFE5CFE9FFE550E5CFC0
:10156000E0FFE5CFD8FF10000101FE511200D9CFF6
:10157000E6FFDACFE6FFE1CFD9FFE2CFDAFFFD0EDB
:10158000DB50EA6A600FE96E000EEA22FC0EDBCF48
:10159000EFFFE552E5CFDAFFE7CFD9FF1200D9CF51
:1015A000E6FFDACFE6FFE1CFD9FFE2CFDAFFFD0EAB
:1015B000DB50EA6A760FE96E000EEA22FC0EDBCF02
:1015C000EFFFE552E5CFDAFFE7CFD9FF1200D9CF21
:1015D000E6FFDACFE6FFE1CFD9FFE2CFDAFFFD0E7B
:1015E000DB50EA6A760FE96E000EEA22EF50E55210
:1015F000E5CFDAFFE7CFD9FF1200400EE66E260EE8
:10160000E66E090EE66ED8EC11F0E552E552E552B1
:10161000400EE66E240EE66E090EE66ED8EC11F072
:10162000E552E552E552E66A260EE66E090EE66ED2
:10163000F9EC11F0E552E552E552E66A240EE66E49
:10164000090EE66EF9EC11F0E552E552E552120092
:10165000D9CFE6FFDACFE6FFE1CFD9FFE2CFDAFF5D
:10166000E652DF6ADF50146E156A0A0E145C000E33
:10167000155806E2E6688BEC09F0E552DF2AF2D74E
:10168000E552E552E5CFDAFFE7CFD9FF1200D9CF17
:10169000E6FFDACFE6FFE1CFD9FFE2CFDAFF3C0E7B
:1016A000E12402E3E168E652E16E800EF36E040E7F
:1016B000F3CFDBFF0001240E606F260E616F2A0E50
:1016C000626F2E0E636F2C0E646F310E656F330EDA
:1016D000666F380E676F4B0E686F520E696F6A0E39
:1016E0006A6F6B0E6B6F6C0E6C6F320E6D6F2F0E20
:1016F0006E6F2B0E6F6F3A0E706F3C0E716F1D0E7A
:10170000726F270E736F3F0E746F400E756F050E6C
:10171000DB6A160EF36E050EDBCFF4FFF350F45CBC
:101720004EE2050EDB50150811E20E0EE66E050EB8
:10173000DBCFE6FF34DFE552E5522A0EE66E050EFA
:10174000DBCFE6FF23EC13F0E552E5520A0EF36E11
:10175000050EDBCFF4FFF350F45C15E3050EDB5010
:101760000C0811E3090EE66E050EDBCFE6FF17DF6E
:10177000E552E552050EDB50EA6A600FE96E000E95
:10178000EA22EF5011D00E0EE66E050EDBCFE6FF1B
:1017900006DFE552E552050EDB50EA6A600FE96E9E
:1017A000000EEA22EF508009E66E050EDBCFE6FF61
:1017B00023EC13F0E552E552050EDB2AAAD7050EFD
:1017C000DB6A160EF36E050EDBCFF4FFF350F45C0C
:1017D00014E2D950100F146E000EDA20156E050EAB
:1017E000DB50020D1450F324E96E1550F420EA6E1C
:1017F000EE6AED6A050EDB2AE4D7A00EF26ED70E74
:10180000D56ED20ED66E050EDB6A0A0EDB6A42EC8E
:101810000AF02EEC00F0F1DE6D6A938A0C0EDB50BC
:10182000200BE76E0D0EE7CFDBFF81AA2ED00C0E4A
:10183000DB50010802E20C0EDB060C0EDB042AE191
:10184000E66A64C0E6FF020EE66EC1DEE552E66EB1
:10185000F9EC11F0E552E552E5527F0EE66E64C0F8
:10186000E6FF020EE66EB3DEE552E66ED8EC11F04E
:10187000E552E552E552010EF36E160EF3CFDBFF93
:10188000170EDB6A0C0EDB6A05D0640EF36E0C0ECD
:10189000F3CFDBFFD9CFE6FFDACFE6FF1BEC0EF08C
:1018A000E552E552000960E0020EDB2ADB50020837
:1018B00009E2020E146EDBCFE7FFE850E726020EC6
:1018C000E7CFDBFF020EDB50020809E10D0EDB5013
:1018D000200805E1030EF36E020EF3CFDBFFE66A8C
:1018E000020EDB50EA6A600FE96E000EEA22EF504A
:1018F000E66E020EDB50EA6A760FE96E000EEA220F
:10190000EF50E66EF9EC11F0E552E552E552030EA8
:10191000DBCFE6FF020EDB50EA6A600FE96E000ED5
:10192000EA22EF50E66E020EDB50EA6A760FE96EAD
:10193000000EEA22EF50E66ED8EC11F0E552E552C7
:10194000E552D950100F146E000EDA20156E020EFB
:10195000DB50020D1450F324E96E1550F420EA6EAA
:10196000010EEE6EED6A58D79EAA93D0ABB402D0AA
:10197000ABA202D0AB98AB880B0EAECFDBFFDB5037
:10198000146E156A990E141804E1155002E1010E47
:101990001AD00A0EDB50146E156A010E141818E1E5
:1019A000155016E10B0EDB50166E176A240ED88008
:1019B0001654000E17540CE30B0EDB50E76E0F0E9F
:1019C000E7CFDBFF020EF36E0A0EF3CFDBFF24D767
:1019D0000A0EDB50146E156A020E141801E01CD7B3
:1019E000155001E019D70F0EDB50146E156A240E46
:1019F000141805E1155003E10F0EDB6A14D0100E28
:101A0000146E0F0EDBCFE7FF1450E7260F0EE7CF63
:101A1000DBFFDBCF14F00101FE51D880145403E248
:101A20000F0EDBCFFEF1E66A0F0EDB50EA6A600FA5
:101A3000E96E000EEA22EF50E66E0F0EDBCFE6FFF6
:101A4000C6DDE552E66EF9EC11F0E552E552E552DD
:101A50000B0EDBCFE6FF0F0EDB50EA6A600FE96E7C
:101A6000000EEA22EF50E66E0F0EDBCFE6FFAFDD91
:101A7000E552E66ED8EC11F0E552E552E552010E62
:101A8000F36E100EF3CFDBFF110EDB6A0A0EDB6A7A
:101A9000C3D6D950100F166E000EDA20176E050E41
:101AA000DB50020D1650F324E96E1750F420EA6E55
:101AB000EECF14F0EFCF15F0153417E214500008F4
:101AC000000E155412E2D950100F146E000EDA20D9
:101AD000156E050EDB50020D1450F324E96E1550FF
:101AE000F420EA6EEE2A000EEF22D950100F166E87
:101AF000000EDA20176E050EDB50020D1650F3248F
:101B0000E96E1750F420EA6EEECF14F0EFCF15F027
:101B1000D890155004E6880E145C130E155826E371
:101B2000E66A050EDB50EA6A600FE96E000EEA22F3
:101B3000EF50E66E050EDBCFE6FF49DDE552E66EBF
:101B4000F9EC11F0E552E552E552D950100F146E40
:101B5000000EDA20156E050EDB50020D1450F32432
:101B6000E96E1550F420EA6EEE68ED68050EDB2A8A
:101B7000DB500F0802E2050EDB6A35EC12F0E9ECEF
:101B800012F0E76E0E0EE7CFDBFFDB50200801E11D
:101B900043D60E0EDBCFE6FF48EC00F0E5523CD614
:101BA000D9CFE6FFDACFE6FFE1CFD9FFE2CFDAFF08
:101BB000E652BF0E926E93689668E3D8E552E552FE
:101BC000E5CFDAFFE7CFD9FF1200D9CFE6FFDACFB2
:101BD000E6FFE1CFD9FFE2CFDAFFE652DF6ADF505E
:101BE000146E156A0D0E145C000E155814E2DF50C9
:101BF000EA6A9A0FE96E010EEA22EFCF14F0FF0EA7
:101C0000145C07E2DF50EA6A9A0FE96E010EEA22DD
:101C1000EF2ADF2AE4D7146A156A0101F951145C2E
:101C2000000E155801E2F907E552E552E5CFDAFF5B
:101C3000E7CFD9FF1200D9CFE6FFDACFE6FFE1CF39
:101C4000D9FFE2CFDAFFFBD80101FA51FB5D57E083
:101C5000FB51FB2BEA6A000FE96E010EEA22EF50FE
:101C6000E66EFC0EDBCFE9FFFD0EDBCFEAFFE552AF
:101C7000E750EF6EFB9FFB51FB2BEA6A000FE96E0A
:101C8000010EEA22EF50E66EFC0EDBCFE9FFFD0EFF
:101C9000DBCFEAFFEE52E552E750EF6EFB9FFB51C0
:101CA000FB2BEA6A000FE96E010EEA22EF50E66EA6
:101CB000FC0EDBCFE9FFFD0EDBCFEAFF020EE926CB
:101CC000000EEA22E552E750EF6EFB9FFB51FB2B23
:101CD000EA6A000FE96E010EEA22EF50E66EFC0E92
:101CE000DBCFE9FFFD0EDBCFEAFF030EE926000E96
:101CF000EA22E552E750EF6EFB9FFF0E01D0000E87
:101D0000E552E5CFDAFFE7CFD9FF1200D9CFE6FFE2
:101D1000DACFE6FFE1CFD9FFE2CFDAFFE652DF6AA2
:101D2000DF50146E156A0D0E145C000E15581EE27D
:101D3000DF50EA6A8D0FE96E010EEA22EF6ADF508A
:101D4000EA6A9A0FE96E010EEA22EF6ADF50EA6A48
:101D5000A70FE96E010EEA22EF6ADF50EA6A800FF0
:101D6000E96E010EEA22EF6ADF2ADAD70101FA6B87
:101D7000FB6BF86BE552E552E5CFDAFFE7CFD9FF11
:101D80001200020EC16E0101F851040DF350C26E33
:101D9000950EC06EC280C2821200D9CFE6FFDACFA4
:101DA000E6FFE1CFD9FFE2CFDAFFFD0EDB500008FE
:101DB0000AE20101FA51FA2BEA6A000FE96E010EFC
:101DC000EA22800E09D00101FA51FA2BEA6A000FCB
:101DD000E96E010EEA22900EEF6EFA9FFA51FA2B8D
:101DE000EA6A000FE96E010EEA22090EEF6EFA9F11
:101DF000FA51FA2BEA6A000FE96E010EEA22F8C1E5
:101E0000EFFFFA9FFA51FA2BEA6A000FE96E010E12
:101E1000EA22FD0EDBCFEFFFFA9FE552E5CFDAFFB6
:101E2000E7CFD9FF12000101F82BF851146E156AA3
:101E30000D0E145C000E155801E3F86B1200D9CF9B
:101E4000E6FFDACFE6FFE1CFD9FFE2CFDAFFE652D5
:101E5000C2B2F6D0146A156AC450145C000E15584C
:101E600002E2DF6802D0C350DF6E0101F851EA6A76
:101E7000A70FE96E010EEA22EF50030A01E191D0AB
:101E8000010A01E177D0030A17E0010A01E0D6D088
:101E9000DF50140801E3D2D0F851EA6A9A0FE96ED4
:101EA000010EEA22EF6AF851EA6A8D0FE96E010E1F
:101EB000EA22DFCFEFFFBAD0F851EA6A8D0FE96E60
:101EC000010EEA22EF50D880DF5408E2F851EA6AA6
:101ED0008D0FE96E010EEA22DFCFEFFFF851EA6ABB
:101EE0009A0FE96E010EEA22EF500A0801E3A6D02C
:101EF000E66A53DFE552020E0101F85D05E2F85192
:101F0000EA6A8D0F010EEA22F851EA6A8D0FE96E36
:101F1000010EEA22EF507F0802E27F0E07D0F8514F
:101F2000EA6A8D0FE96E010EEA22EF50E66E35DFA8
:101F3000E5520101F851EA6A8D0FE96E010EEA22BD
:101F4000EF50E66EF851EA6A800FE96E010EEA2260
:101F5000E552E750EF6EF851EA6A8D0FE96E010E17
:101F6000EA22EF6AF851EA6AA70FE96E010EEA2247
:101F7000020E10D0F851EA6A9A0FE96E010EEA22B9
:101F8000EF500A085BE2F851EA6AA70FE96E010E0A
:101F9000EA22030EEF6EF851EA6A9A0FE96E010E1B
:101FA00015D0F851EA6A9A0FE96E010EEA22EF5055
:101FB00032080FE2F851EA6A8D0FE96E010EEA224B
:101FC000EF6AF851EA6AA70FE96E010EEA22EF6A9A
:101FD00035D0F851EA6A8D0FE96E010EEA22EF5012
:101FE000D880DF5409E2F851EA6A8D0FE96E010EDC
:101FF000EA22DFCFEFFF22D0F851EA6A8D0FE96EB7
:10200000010EEA22EFCF14F0F851EA6A800FE96E70
:10201000010EEA22EF50F60FD88014540FE2F85167
:10202000EA6A9A0FE96E010EEA22EF6AF851EA6A4B
:10203000A70FE96E010EEA22010EEF6EF4DEA1DEBB
:10204000E552E552E5CFDAFFE7CFD9FF1200D9CF4D
:10205000E6FFDACFE6FFE1CFD9FFE2CFDAFFE652C3
:10206000DF6ADF50146E156A0D0E145C000E1558F1
:102070003FE20101F851DF5C39E0DF50EA6AA70F67
:10208000E96E010EEA22EF5003080BE1DF50EA6A25
:102090009A0FE96E010EEA22EFCF14F0020E145CE3
:1020A00011E3DF50EA6AA70FE96E010EEA22EF049E
:1020B0001DE1DF50EA6A9A0FE96E010EEA22EF5045
:1020C000010814E2F851EA6A8D0FE96E010EEA2266
:1020D000EFCF15F0DF50EA6A8D0FE96E010EEA22AC
:1020E000EF50140F155C02E2FF0E03D0DF2AB9D7C0
:1020F000000EE552E552E5CFDAFFE7CFD9FF120037
:102100002D2D2D204472756D70616473202D2D2D41
:10211000002A2048656C702020202023204D656E09
:1021200075002A203D20457869742F707265766F9E
:1021300075730023203D20456E7465722F6E65789F
:10214000742020004E756D62657273203D20302D25
:1021500039206F720041203D2075702C2042203DB7
:1021600020646F776E005061642030203D206264EF
:102170002D706564616C005061642031203D2073D6
:102180006E6172652D6472005061642032203D20C2
:10219000686967682D686174005061642033203D70
:1021A000206F70656E2D6868200050616420342DAA
:1021B0003131203D2063796D2D200062616C7320E8
:1021C0006574632E20626F617264200031322D319C
:1021D0003420746F6D7320626F617264004D4944E6
:1021E00049206368616E2E2031302F313500412047
:1021F000536F756E64732042204D4944492000633B
:1022000068616E6E656C7320432050617463680072
:10221000456E746572206472756D20706164202053
:10222000006E756D6265722028302D3531293A2097
:102230002000456E74657220736F756E64206E7534
:102240006D2D006265722028302D313237293A20F9
:10225000202020005061746368206E6E2028312D8C
:102260003429202000433D4C6F616420233D53619D
:102270007665202020005361766520746F207061A0
:10228000746368206E6E00537572653F202A3D4E60
:102290006F20233D59657300506C6179696E67202A
:1022A00070617463682E2E2E00436F7079206E6EFD
:1022B00020746F206E6E2E2E2E0053656C65637435
:1022C00020616E6420656E746572004D494449203A
:1022D0006F75742063683A206E6E20004D49444942
:0D22E00020696E2063683A206E6E20200099
:0122ED000FE1
:0222EE00C00E20
:1022F0009412B06A170EAF6E200EAC6E900EAB6EDD
:10230000B86A9D6A9E6A800ED06E0101F66BF76B0B
:102310001200D9CFE6FFDACFE6FFE1CFD9FFE2CF57
:10232000DAFFE652E6520101F66BF76B010EDB6A4B
:10233000100EF36E010EDBCFF4FFF350F45C30E2CD
:10234000DF6ADF50146E156A800E145C000E15589B
:1023500024E2100E9E14146E156A100E1418F9E182
:102360001550F7E1010EDB508009AD6E100E9E1482
:10237000146E156A100E1418F9E11550F7E1DF50CC
:10238000AD6E100E9E14146E156A100E1418F9E13D
:102390001550F7E1AD6ADF2AD4D7010EDB2AC8D782
:1023A000E552E552E552E5CFDAFFE7CFD9FF12005B
:1023B000D9CFE6FFDACFE6FFE1CFD9FFE2CFDAFFF0
:1023C000FD0EDB500F0B9009E66E34D8E552FC0E83
:1023D000DB507F0BE66E2ED8E552FB0EDB507F0BF9
:1023E000E66E28D8E552E552E5CFDAFFE7CFD9FF10
:1023F0001200D9CFE6FFDACFE6FFE1CFD9FFE2CF77
:10240000DAFFFD0EDB500F0B8009E66E13D8E552A4
:10241000FC0EDB507F0BE66E0DD8E552FB0EDB5059
:102420007F0BE66E07D8E552E552E5CFDAFFE7CF3E
:10243000D9FF1200D9CFE6FFDACFE6FFE1CFD9FF0F
:10244000E2CFDAFF0101F651F62BEA6AB40FE96E2A
:10245000010EEA22FD0EDBCFEFFF3F0EF617E5522D
:10246000E5CFDAFFE7CFD9FF12000101F651F75DA2
:102470000DE09EA80BD0F751F72BEA6AB40FE96E76
:0E248000010EEA22EF50AD6E3F0EF71712006C
:02248E00006AE2
:102490000EAE50EF12F00D6C0E1EE86A0E22001EFA
:1024A00009AE58EF12F0086C091EE86A0922001EF6
:1024B0005BEC13F009BE68EF12F000AE000C086C84
:1024C000091EE86A0922046C051EE86A0522000C50
:1024D00000BE5FEF12F00188FF0C09C013F008C0C6
:1024E00012F008500D02F4CF07F0F3CF06F00950B8
:1024F0000E02F4CF09F0F3CF08F00D02F3500726D7
:10250000F4500822E86A092212500E02F3500726FE
:10251000F4500822E86A09220EAE93EF12F012502E
:10252000085E1350095A13AE000C0D50085E0E5091
:04253000095A000C38
:0C2534002A0EF66E000EF76E000EF86E18
:1025400000010900F550C66F0900F550C76F03E19F
:10255000C66701D03DD00900F550C16F0900F550A4
:10256000C26F0900F550C36F09000900F550E96E0C
:102570000900F550EA6E090009000900F550C46F22
:102580000900F550C56F09000900F6CFC8F0F7CF74
:10259000C9F0F8CFCAF0C1C0F6FFC2C0F7FFC3C090
:1025A000F8FF0001C45302E1C55307E00900F550EC
:1025B000EE6EC407F8E2C507F9D7C8C0F6FFC9C078
:1025C000F7FFCAC0F8FF0001C607000EC75BBFD700
:0225D0001200F7
:0E25D2000F0E956EBEC083FF0001BD51831435
:1025E0001FE0B6EC09F00001BD51831419E0BD51A4
:1025F0008314FDE1B6EC09F00001C051040DF3CFE6
:1026000014F0F4CF15F0AD0E1426000E1522BF51B4
:102610000F011424E96E000E1520EA6EEF5012002F
:10262000BD9FBD47BF2BBF5103080CE2010EBD6F1C
:10263000BF6BBE9FBE47C02BC051030803E2100E04
:06264000BE6FC06B200C10
:0A264600D9CFE6FFDACFE6FFE1CFBF
:10265000D9FFE2CFDAFFFD0EDB50A96EFC0EDB5096
:10266000A86EA69CA69EA684F29E550EA76EAA0EE4
:10267000A76EA682A6B2FED7B6EC09F0F28EA6949B
:10268000E552E5CFDAFFE7CFD9FF1200D9CFE6FF59
:10269000DACFE6FFE1CFD9FFE2CFDAFFFD0EDB5064
:1026A000A96EA69CA69EA680A850E552E5CFDAFFAB
:0626B000E7CFD9FF120084
:0A26B600056A046A100EE76ED89062
:1026C00008360936043605360D50045C0E500558A0
:1026D00005E30D50045E0E50055A082AE72EF0D788
:0226E0001200E6
:0E26E200000EF36E00EE00F0040E01D81200A0
:1026F000EA6002D0EE6AFCD7F350E9601200EE6A9D
:02270000FCD704
:0E27020013EE00F023EE00F0F86A019C9AEC52
:0E27100012F09DEC13F047EC0BF0FBD712001B
:02271E00056A4A
:10272000080EE76ED890093605360E50055C02E3B8
:0A273000056E092AE72EF7D7120004
:02273A0012008B
:04273C0031323341C2
:1027400034353642373839432A30234401100000EB
:092750000000000109090000006D
:04275900000000007C
:020000040030CA
:0100000000FF
:0100010004FA
:0100020019E4
:010003001EDE
:0100050003F7
:010006008178
:010008000FE8
:01000900C036
:01000A000FE6
:01000B00E014
:01000C000FE4
:01000D0040B2
:00000001FF
